{
  "contractName": "Exchange",
  "abi": [
    {
      "constant": true,
      "inputs": [],
      "name": "orderNonce",
      "outputs": [
        {
          "name": "",
          "type": "uint256"
        }
      ],
      "payable": false,
      "stateMutability": "view",
      "type": "function",
      "signature": "0x16f8de89"
    },
    {
      "constant": true,
      "inputs": [
        {
          "name": "",
          "type": "uint256"
        }
      ],
      "name": "ordersFilled",
      "outputs": [
        {
          "name": "",
          "type": "bool"
        }
      ],
      "payable": false,
      "stateMutability": "view",
      "type": "function",
      "signature": "0x21168620"
    },
    {
      "constant": true,
      "inputs": [],
      "name": "takerFee",
      "outputs": [
        {
          "name": "",
          "type": "uint256"
        }
      ],
      "payable": false,
      "stateMutability": "view",
      "type": "function",
      "signature": "0x43f0179b"
    },
    {
      "constant": true,
      "inputs": [
        {
          "name": "",
          "type": "address"
        },
        {
          "name": "",
          "type": "address"
        }
      ],
      "name": "tokens",
      "outputs": [
        {
          "name": "",
          "type": "uint256"
        }
      ],
      "payable": false,
      "stateMutability": "view",
      "type": "function",
      "signature": "0x508493bc"
    },
    {
      "constant": true,
      "inputs": [],
      "name": "charity",
      "outputs": [
        {
          "name": "",
          "type": "address"
        }
      ],
      "payable": false,
      "stateMutability": "view",
      "type": "function",
      "signature": "0x934aa023"
    },
    {
      "constant": true,
      "inputs": [
        {
          "name": "",
          "type": "uint256"
        }
      ],
      "name": "orders",
      "outputs": [
        {
          "name": "id",
          "type": "uint256"
        },
        {
          "name": "maker",
          "type": "address"
        },
        {
          "name": "tokenBuy",
          "type": "address"
        },
        {
          "name": "tokenSell",
          "type": "address"
        },
        {
          "name": "amountBuy",
          "type": "uint256"
        },
        {
          "name": "amountSell",
          "type": "uint256"
        },
        {
          "name": "timestamp",
          "type": "uint256"
        }
      ],
      "payable": false,
      "stateMutability": "view",
      "type": "function",
      "signature": "0xa85c38ef"
    },
    {
      "constant": true,
      "inputs": [],
      "name": "feeReceiver",
      "outputs": [
        {
          "name": "",
          "type": "address"
        }
      ],
      "payable": false,
      "stateMutability": "view",
      "type": "function",
      "signature": "0xb3f00674"
    },
    {
      "constant": true,
      "inputs": [
        {
          "name": "",
          "type": "uint256"
        }
      ],
      "name": "ordersCancelled",
      "outputs": [
        {
          "name": "",
          "type": "bool"
        }
      ],
      "payable": false,
      "stateMutability": "view",
      "type": "function",
      "signature": "0xc72abc50"
    },
    {
      "constant": true,
      "inputs": [],
      "name": "makerFee",
      "outputs": [
        {
          "name": "",
          "type": "uint256"
        }
      ],
      "payable": false,
      "stateMutability": "view",
      "type": "function",
      "signature": "0xfc741c7c"
    },
    {
      "inputs": [
        {
          "name": "_feeReceiver",
          "type": "address"
        },
        {
          "name": "_makerFee",
          "type": "uint256"
        },
        {
          "name": "_takerFee",
          "type": "uint256"
        }
      ],
      "payable": false,
      "stateMutability": "nonpayable",
      "type": "constructor",
      "signature": "constructor"
    },
    {
      "payable": true,
      "stateMutability": "payable",
      "type": "fallback"
    },
    {
      "anonymous": false,
      "inputs": [
        {
          "indexed": false,
          "name": "token",
          "type": "address"
        },
        {
          "indexed": false,
          "name": "maker",
          "type": "address"
        },
        {
          "indexed": false,
          "name": "amount",
          "type": "uint256"
        },
        {
          "indexed": false,
          "name": "balance",
          "type": "uint256"
        }
      ],
      "name": "Deposit",
      "type": "event",
      "signature": "0xdcbc1c05240f31ff3ad067ef1ee35ce4997762752e3a095284754544f4c709d7"
    },
    {
      "anonymous": false,
      "inputs": [
        {
          "indexed": false,
          "name": "token",
          "type": "address"
        },
        {
          "indexed": false,
          "name": "maker",
          "type": "address"
        },
        {
          "indexed": false,
          "name": "amount",
          "type": "uint256"
        },
        {
          "indexed": false,
          "name": "balance",
          "type": "uint256"
        }
      ],
      "name": "Withdraw",
      "type": "event",
      "signature": "0xf341246adaac6f497bc2a656f546ab9e182111d630394f0c57c710a59a2cb567"
    },
    {
      "anonymous": false,
      "inputs": [
        {
          "indexed": false,
          "name": "id",
          "type": "uint256"
        },
        {
          "indexed": false,
          "name": "maker",
          "type": "address"
        },
        {
          "indexed": false,
          "name": "tokenBuy",
          "type": "address"
        },
        {
          "indexed": false,
          "name": "tokenSell",
          "type": "address"
        },
        {
          "indexed": false,
          "name": "amountBuy",
          "type": "uint256"
        },
        {
          "indexed": false,
          "name": "amountSell",
          "type": "uint256"
        },
        {
          "indexed": false,
          "name": "timestamp",
          "type": "uint256"
        }
      ],
      "name": "Order",
      "type": "event",
      "signature": "0x9434899c78d95bd429483ca0369690d215ef8d49c2bf530bfcfda5945932ac1c"
    },
    {
      "anonymous": false,
      "inputs": [
        {
          "indexed": false,
          "name": "id",
          "type": "uint256"
        },
        {
          "indexed": false,
          "name": "maker",
          "type": "address"
        },
        {
          "indexed": false,
          "name": "tokenBuy",
          "type": "address"
        },
        {
          "indexed": false,
          "name": "tokenSell",
          "type": "address"
        },
        {
          "indexed": false,
          "name": "amountBuy",
          "type": "uint256"
        },
        {
          "indexed": false,
          "name": "amountSell",
          "type": "uint256"
        },
        {
          "indexed": false,
          "name": "timestamp",
          "type": "uint256"
        }
      ],
      "name": "Cancelled",
      "type": "event",
      "signature": "0x8e73945ed6a50eb125f7a9c1292734c5ad20521f39e3b8995603476607cef204"
    },
    {
      "anonymous": false,
      "inputs": [
        {
          "indexed": false,
          "name": "id",
          "type": "uint256"
        },
        {
          "indexed": false,
          "name": "maker",
          "type": "address"
        },
        {
          "indexed": false,
          "name": "taker",
          "type": "address"
        },
        {
          "indexed": false,
          "name": "tokenBuy",
          "type": "address"
        },
        {
          "indexed": false,
          "name": "tokenSell",
          "type": "address"
        },
        {
          "indexed": false,
          "name": "amountBuy",
          "type": "uint256"
        },
        {
          "indexed": false,
          "name": "amountSell",
          "type": "uint256"
        },
        {
          "indexed": false,
          "name": "timestamp",
          "type": "uint256"
        }
      ],
      "name": "Trade",
      "type": "event",
      "signature": "0xea52f519570b32b2409f401c8da63417f5775c7e1e87e6e38c53c413a6b5e725"
    },
    {
      "constant": false,
      "inputs": [],
      "name": "depositEther",
      "outputs": [],
      "payable": true,
      "stateMutability": "payable",
      "type": "function",
      "signature": "0x98ea5fca"
    },
    {
      "constant": false,
      "inputs": [
        {
          "name": "_amount",
          "type": "uint256"
        }
      ],
      "name": "withdrawEther",
      "outputs": [],
      "payable": true,
      "stateMutability": "payable",
      "type": "function",
      "signature": "0x3bed33ce"
    },
    {
      "constant": false,
      "inputs": [
        {
          "name": "_token",
          "type": "address"
        },
        {
          "name": "_amount",
          "type": "uint256"
        }
      ],
      "name": "depositToken",
      "outputs": [],
      "payable": false,
      "stateMutability": "nonpayable",
      "type": "function",
      "signature": "0x338b5dea"
    },
    {
      "constant": false,
      "inputs": [
        {
          "name": "_token",
          "type": "address"
        },
        {
          "name": "_amount",
          "type": "uint256"
        }
      ],
      "name": "withdrawToken",
      "outputs": [],
      "payable": false,
      "stateMutability": "nonpayable",
      "type": "function",
      "signature": "0x9e281a98"
    },
    {
      "constant": true,
      "inputs": [
        {
          "name": "_token",
          "type": "address"
        },
        {
          "name": "_maker",
          "type": "address"
        }
      ],
      "name": "balanceOf",
      "outputs": [
        {
          "name": "",
          "type": "uint256"
        }
      ],
      "payable": false,
      "stateMutability": "view",
      "type": "function",
      "signature": "0xf7888aec"
    },
    {
      "constant": false,
      "inputs": [
        {
          "name": "_tokenBuy",
          "type": "address"
        },
        {
          "name": "_tokenSell",
          "type": "address"
        },
        {
          "name": "_amountBuy",
          "type": "uint256"
        },
        {
          "name": "_amountSell",
          "type": "uint256"
        }
      ],
      "name": "makeOrder",
      "outputs": [],
      "payable": false,
      "stateMutability": "nonpayable",
      "type": "function",
      "signature": "0xe68fb207"
    },
    {
      "constant": false,
      "inputs": [
        {
          "name": "_id",
          "type": "uint256"
        }
      ],
      "name": "cancelOrder",
      "outputs": [],
      "payable": false,
      "stateMutability": "nonpayable",
      "type": "function",
      "signature": "0x514fcac7"
    },
    {
      "constant": false,
      "inputs": [
        {
          "name": "_id",
          "type": "uint256"
        }
      ],
      "name": "fillOrder",
      "outputs": [],
      "payable": false,
      "stateMutability": "nonpayable",
      "type": "function",
      "signature": "0x67b830ad"
    },
    {
      "constant": false,
      "inputs": [],
      "name": "donate",
      "outputs": [
        {
          "name": "success",
          "type": "bool"
        }
      ],
      "payable": false,
      "stateMutability": "nonpayable",
      "type": "function",
      "signature": "0xed88c68e"
    },
    {
      "constant": false,
      "inputs": [
        {
          "name": "newCharity",
          "type": "address"
        }
      ],
      "name": "transferCharity",
      "outputs": [],
      "payable": false,
      "stateMutability": "nonpayable",
      "type": "function",
      "signature": "0x0503a3bb"
    }
  ],
  "bytecode": "0x608060405234801561001057600080fd5b506040516060806127d68339810180604052606081101561003057600080fd5b81019080805190602001909291908051906020019092919080519060200190929190505050826000806101000a81548173ffffffffffffffffffffffffffffffffffffffff021916908373ffffffffffffffffffffffffffffffffffffffff160217905550816001819055508060028190555033600460006101000a81548173ffffffffffffffffffffffffffffffffffffffff021916908373ffffffffffffffffffffffffffffffffffffffff1602179055505050506126e0806100f66000396000f3fe608060405260043610610107576000357c0100000000000000000000000000000000000000000000000000000000900463ffffffff1680630503a3bb1461010957806316f8de891461015a5780632116862014610185578063338b5dea146101d85780633bed33ce1461023357806343f0179b14610261578063508493bc1461028c578063514fcac71461031157806367b830ad1461034c578063934aa0231461038757806398ea5fca146103de5780639e281a98146103e8578063a85c38ef14610443578063b3f0067414610540578063c72abc5014610597578063e68fb207146105ea578063ed88c68e1461066f578063f7888aec1461069e578063fc741c7c14610723575b005b34801561011557600080fd5b506101586004803603602081101561012c57600080fd5b81019080803573ffffffffffffffffffffffffffffffffffffffff16906020019092919050505061074e565b005b34801561016657600080fd5b5061016f61082a565b6040518082815260200191505060405180910390f35b34801561019157600080fd5b506101be600480360360208110156101a857600080fd5b8101908080359060200190929190505050610830565b604051808215151515815260200191505060405180910390f35b3480156101e457600080fd5b50610231600480360360408110156101fb57600080fd5b81019080803573ffffffffffffffffffffffffffffffffffffffff16906020019092919080359060200190929190505050610850565b005b61025f6004803603602081101561024957600080fd5b8101908080359060200190929190505050610bdf565b005b34801561026d57600080fd5b50610276610ee7565b6040518082815260200191505060405180910390f35b34801561029857600080fd5b506102fb600480360360408110156102af57600080fd5b81019080803573ffffffffffffffffffffffffffffffffffffffff169060200190929190803573ffffffffffffffffffffffffffffffffffffffff169060200190929190505050610eed565b6040518082815260200191505060405180910390f35b34801561031d57600080fd5b5061034a6004803603602081101561033457600080fd5b8101908080359060200190929190505050610f12565b005b34801561035857600080fd5b506103856004803603602081101561036f57600080fd5b8101908080359060200190929190505050611108565b005b34801561039357600080fd5b5061039c611250565b604051808273ffffffffffffffffffffffffffffffffffffffff1673ffffffffffffffffffffffffffffffffffffffff16815260200191505060405180910390f35b6103e6611276565b005b3480156103f457600080fd5b506104416004803603604081101561040b57600080fd5b81019080803573ffffffffffffffffffffffffffffffffffffffff169060200190929190803590602001909291905050506114ab565b005b34801561044f57600080fd5b5061047c6004803603602081101561046657600080fd5b8101908080359060200190929190505050611891565b604051808881526020018773ffffffffffffffffffffffffffffffffffffffff1673ffffffffffffffffffffffffffffffffffffffff1681526020018673ffffffffffffffffffffffffffffffffffffffff1673ffffffffffffffffffffffffffffffffffffffff1681526020018573ffffffffffffffffffffffffffffffffffffffff1673ffffffffffffffffffffffffffffffffffffffff16815260200184815260200183815260200182815260200197505050505050505060405180910390f35b34801561054c57600080fd5b50610555611933565b604051808273ffffffffffffffffffffffffffffffffffffffff1673ffffffffffffffffffffffffffffffffffffffff16815260200191505060405180910390f35b3480156105a357600080fd5b506105d0600480360360208110156105ba57600080fd5b8101908080359060200190929190505050611958565b604051808215151515815260200191505060405180910390f35b3480156105f657600080fd5b5061066d6004803603608081101561060d57600080fd5b81019080803573ffffffffffffffffffffffffffffffffffffffff169060200190929190803573ffffffffffffffffffffffffffffffffffffffff1690602001909291908035906020019092919080359060200190929190505050611978565b005b34801561067b57600080fd5b50610684611c14565b604051808215151515815260200191505060405180910390f35b3480156106aa57600080fd5b5061070d600480360360408110156106c157600080fd5b81019080803573ffffffffffffffffffffffffffffffffffffffff169060200190929190803573ffffffffffffffffffffffffffffffffffffffff169060200190929190505050611cf9565b6040518082815260200191505060405180910390f35b34801561072f57600080fd5b50610738611d80565b6040518082815260200191505060405180910390f35b600460009054906101000a900473ffffffffffffffffffffffffffffffffffffffff1673ffffffffffffffffffffffffffffffffffffffff163373ffffffffffffffffffffffffffffffffffffffff161415156107aa57600080fd5b600073ffffffffffffffffffffffffffffffffffffffff168173ffffffffffffffffffffffffffffffffffffffff16141515156107e657600080fd5b80600460006101000a81548173ffffffffffffffffffffffffffffffffffffffff021916908373ffffffffffffffffffffffffffffffffffffffff16021790555050565b60035481565b60086020528060005260406000206000915054906101000a900460ff1681565b600073ffffffffffffffffffffffffffffffffffffffff168273ffffffffffffffffffffffffffffffffffffffff161415151561088c57600080fd5b8173ffffffffffffffffffffffffffffffffffffffff166323b872dd3330846040518463ffffffff167c0100000000000000000000000000000000000000000000000000000000028152600401808473ffffffffffffffffffffffffffffffffffffffff1673ffffffffffffffffffffffffffffffffffffffff1681526020018373ffffffffffffffffffffffffffffffffffffffff1673ffffffffffffffffffffffffffffffffffffffff1681526020018281526020019350505050602060405180830381600087803b15801561096357600080fd5b505af1158015610977573d6000803e3d6000fd5b505050506040513d602081101561098d57600080fd5b810190808051906020019092919050505015156109a957600080fd5b610a3881600560008573ffffffffffffffffffffffffffffffffffffffff1673ffffffffffffffffffffffffffffffffffffffff16815260200190815260200160002060003373ffffffffffffffffffffffffffffffffffffffff1673ffffffffffffffffffffffffffffffffffffffff16815260200190815260200160002054611d8690919063ffffffff16565b600560008473ffffffffffffffffffffffffffffffffffffffff1673ffffffffffffffffffffffffffffffffffffffff16815260200190815260200160002060003373ffffffffffffffffffffffffffffffffffffffff1673ffffffffffffffffffffffffffffffffffffffff168152602001908152602001600020819055507fdcbc1c05240f31ff3ad067ef1ee35ce4997762752e3a095284754544f4c709d7823383600560008773ffffffffffffffffffffffffffffffffffffffff1673ffffffffffffffffffffffffffffffffffffffff16815260200190815260200160002060003373ffffffffffffffffffffffffffffffffffffffff1673ffffffffffffffffffffffffffffffffffffffff16815260200190815260200160002054604051808573ffffffffffffffffffffffffffffffffffffffff1673ffffffffffffffffffffffffffffffffffffffff1681526020018473ffffffffffffffffffffffffffffffffffffffff1673ffffffffffffffffffffffffffffffffffffffff16815260200183815260200182815260200194505050505060405180910390a15050565b80600560008073ffffffffffffffffffffffffffffffffffffffff1673ffffffffffffffffffffffffffffffffffffffff16815260200190815260200160002060003373ffffffffffffffffffffffffffffffffffffffff1673ffffffffffffffffffffffffffffffffffffffff1681526020019081526020016000205410151515610c6a57600080fd5b610cf981600560008073ffffffffffffffffffffffffffffffffffffffff1673ffffffffffffffffffffffffffffffffffffffff16815260200190815260200160002060003373ffffffffffffffffffffffffffffffffffffffff1673ffffffffffffffffffffffffffffffffffffffff16815260200190815260200160002054611da790919063ffffffff16565b600560008073ffffffffffffffffffffffffffffffffffffffff1673ffffffffffffffffffffffffffffffffffffffff16815260200190815260200160002060003373ffffffffffffffffffffffffffffffffffffffff1673ffffffffffffffffffffffffffffffffffffffff168152602001908152602001600020819055503373ffffffffffffffffffffffffffffffffffffffff166108fc829081150290604051600060405180830381858888f19350505050158015610dbf573d6000803e3d6000fd5b507ff341246adaac6f497bc2a656f546ab9e182111d630394f0c57c710a59a2cb56760003383600560008073ffffffffffffffffffffffffffffffffffffffff1673ffffffffffffffffffffffffffffffffffffffff16815260200190815260200160002060003373ffffffffffffffffffffffffffffffffffffffff1673ffffffffffffffffffffffffffffffffffffffff16815260200190815260200160002054604051808573ffffffffffffffffffffffffffffffffffffffff1673ffffffffffffffffffffffffffffffffffffffff1681526020018473ffffffffffffffffffffffffffffffffffffffff1673ffffffffffffffffffffffffffffffffffffffff16815260200183815260200182815260200194505050505060405180910390a150565b60025481565b6005602052816000526040600020602052806000526040600020600091509150505481565b6000600660008381526020019081526020016000209050818160000154141515610f3b57600080fd5b3373ffffffffffffffffffffffffffffffffffffffff168160010160009054906101000a900473ffffffffffffffffffffffffffffffffffffffff1673ffffffffffffffffffffffffffffffffffffffff16141515610f9957600080fd5b60016007600084815260200190815260200160002060006101000a81548160ff0219169083151502179055507f8e73945ed6a50eb125f7a9c1292734c5ad20521f39e3b8995603476607cef2048160000154338360020160009054906101000a900473ffffffffffffffffffffffffffffffffffffffff168460030160009054906101000a900473ffffffffffffffffffffffffffffffffffffffff168560040154866005015442604051808881526020018773ffffffffffffffffffffffffffffffffffffffff1673ffffffffffffffffffffffffffffffffffffffff1681526020018673ffffffffffffffffffffffffffffffffffffffff1673ffffffffffffffffffffffffffffffffffffffff1681526020018573ffffffffffffffffffffffffffffffffffffffff1673ffffffffffffffffffffffffffffffffffffffff16815260200184815260200183815260200182815260200197505050505050505060405180910390a15050565b60008111801561111a57506003548111155b151561112557600080fd5b6007600082815260200190815260200160002060009054906101000a900460ff1615151561115257600080fd5b6008600082815260200190815260200160002060009054906101000a900460ff1615151561117f57600080fd5b600060066000838152602001908152602001600020905061121c81600001548260010160009054906101000a900473ffffffffffffffffffffffffffffffffffffffff168360020160009054906101000a900473ffffffffffffffffffffffffffffffffffffffff168460030160009054906101000a900473ffffffffffffffffffffffffffffffffffffffff1685600401548660050154611dc9565b6001600860008360000154815260200190815260200160002060006101000a81548160ff0219169083151502179055505050565b600460009054906101000a900473ffffffffffffffffffffffffffffffffffffffff1681565b61130534600560008073ffffffffffffffffffffffffffffffffffffffff1673ffffffffffffffffffffffffffffffffffffffff16815260200190815260200160002060003373ffffffffffffffffffffffffffffffffffffffff1673ffffffffffffffffffffffffffffffffffffffff16815260200190815260200160002054611d8690919063ffffffff16565b600560008073ffffffffffffffffffffffffffffffffffffffff1673ffffffffffffffffffffffffffffffffffffffff16815260200190815260200160002060003373ffffffffffffffffffffffffffffffffffffffff1673ffffffffffffffffffffffffffffffffffffffff168152602001908152602001600020819055507fdcbc1c05240f31ff3ad067ef1ee35ce4997762752e3a095284754544f4c709d760003334600560008073ffffffffffffffffffffffffffffffffffffffff1673ffffffffffffffffffffffffffffffffffffffff16815260200190815260200160002060003373ffffffffffffffffffffffffffffffffffffffff1673ffffffffffffffffffffffffffffffffffffffff16815260200190815260200160002054604051808573ffffffffffffffffffffffffffffffffffffffff1673ffffffffffffffffffffffffffffffffffffffff1681526020018473ffffffffffffffffffffffffffffffffffffffff1673ffffffffffffffffffffffffffffffffffffffff16815260200183815260200182815260200194505050505060405180910390a1565b600073ffffffffffffffffffffffffffffffffffffffff168273ffffffffffffffffffffffffffffffffffffffff16141515156114e757600080fd5b80600560008473ffffffffffffffffffffffffffffffffffffffff1673ffffffffffffffffffffffffffffffffffffffff16815260200190815260200160002060003373ffffffffffffffffffffffffffffffffffffffff1673ffffffffffffffffffffffffffffffffffffffff168152602001908152602001600020541015151561157257600080fd5b61160181600560008573ffffffffffffffffffffffffffffffffffffffff1673ffffffffffffffffffffffffffffffffffffffff16815260200190815260200160002060003373ffffffffffffffffffffffffffffffffffffffff1673ffffffffffffffffffffffffffffffffffffffff16815260200190815260200160002054611da790919063ffffffff16565b600560008473ffffffffffffffffffffffffffffffffffffffff1673ffffffffffffffffffffffffffffffffffffffff16815260200190815260200160002060003373ffffffffffffffffffffffffffffffffffffffff1673ffffffffffffffffffffffffffffffffffffffff168152602001908152602001600020819055508173ffffffffffffffffffffffffffffffffffffffff1663a9059cbb33836040518363ffffffff167c0100000000000000000000000000000000000000000000000000000000028152600401808373ffffffffffffffffffffffffffffffffffffffff1673ffffffffffffffffffffffffffffffffffffffff16815260200182815260200192505050602060405180830381600087803b15801561172457600080fd5b505af1158015611738573d6000803e3d6000fd5b505050506040513d602081101561174e57600080fd5b8101908080519060200190929190505050151561176a57600080fd5b7ff341246adaac6f497bc2a656f546ab9e182111d630394f0c57c710a59a2cb567823383600560008773ffffffffffffffffffffffffffffffffffffffff1673ffffffffffffffffffffffffffffffffffffffff16815260200190815260200160002060003373ffffffffffffffffffffffffffffffffffffffff1673ffffffffffffffffffffffffffffffffffffffff16815260200190815260200160002054604051808573ffffffffffffffffffffffffffffffffffffffff1673ffffffffffffffffffffffffffffffffffffffff1681526020018473ffffffffffffffffffffffffffffffffffffffff1673ffffffffffffffffffffffffffffffffffffffff16815260200183815260200182815260200194505050505060405180910390a15050565b60066020528060005260406000206000915090508060000154908060010160009054906101000a900473ffffffffffffffffffffffffffffffffffffffff16908060020160009054906101000a900473ffffffffffffffffffffffffffffffffffffffff16908060030160009054906101000a900473ffffffffffffffffffffffffffffffffffffffff16908060040154908060050154908060060154905087565b6000809054906101000a900473ffffffffffffffffffffffffffffffffffffffff1681565b60076020528060005260406000206000915054906101000a900460ff1681565b61198e6001600354611d8690919063ffffffff16565b60038190555060e06040519081016040528060035481526020013373ffffffffffffffffffffffffffffffffffffffff1681526020018573ffffffffffffffffffffffffffffffffffffffff1681526020018473ffffffffffffffffffffffffffffffffffffffff168152602001838152602001828152602001428152506006600060035481526020019081526020016000206000820151816000015560208201518160010160006101000a81548173ffffffffffffffffffffffffffffffffffffffff021916908373ffffffffffffffffffffffffffffffffffffffff16021790555060408201518160020160006101000a81548173ffffffffffffffffffffffffffffffffffffffff021916908373ffffffffffffffffffffffffffffffffffffffff16021790555060608201518160030160006101000a81548173ffffffffffffffffffffffffffffffffffffffff021916908373ffffffffffffffffffffffffffffffffffffffff1602179055506080820151816004015560a0820151816005015560c082015181600601559050507f9434899c78d95bd429483ca0369690d215ef8d49c2bf530bfcfda5945932ac1c600354338686868642604051808881526020018773ffffffffffffffffffffffffffffffffffffffff1673ffffffffffffffffffffffffffffffffffffffff1681526020018673ffffffffffffffffffffffffffffffffffffffff1673ffffffffffffffffffffffffffffffffffffffff1681526020018573ffffffffffffffffffffffffffffffffffffffff1673ffffffffffffffffffffffffffffffffffffffff16815260200184815260200183815260200182815260200197505050505050505060405180910390a150505050565b6000600460009054906101000a900473ffffffffffffffffffffffffffffffffffffffff1673ffffffffffffffffffffffffffffffffffffffff163373ffffffffffffffffffffffffffffffffffffffff16141515611c7257600080fd5b600460009054906101000a900473ffffffffffffffffffffffffffffffffffffffff1673ffffffffffffffffffffffffffffffffffffffff166108fc3073ffffffffffffffffffffffffffffffffffffffff16319081150290604051600060405180830381858888f19350505050158015611cf1573d6000803e3d6000fd5b506001905090565b6000600560008473ffffffffffffffffffffffffffffffffffffffff1673ffffffffffffffffffffffffffffffffffffffff16815260200190815260200160002060008373ffffffffffffffffffffffffffffffffffffffff1673ffffffffffffffffffffffffffffffffffffffff16815260200190815260200160002054905092915050565b60015481565b6000808284019050838110151515611d9d57600080fd5b8091505092915050565b6000828211151515611db857600080fd5b600082840390508091505092915050565b6000611df36064611de56002548561264c90919063ffffffff16565b61268a90919063ffffffff16565b90506000611e1f6064611e116001548761264c90919063ffffffff16565b61268a90919063ffffffff16565b9050611ec2611e378386611d8690919063ffffffff16565b600560008973ffffffffffffffffffffffffffffffffffffffff1673ffffffffffffffffffffffffffffffffffffffff16815260200190815260200160002060003373ffffffffffffffffffffffffffffffffffffffff1673ffffffffffffffffffffffffffffffffffffffff16815260200190815260200160002054611da790919063ffffffff16565b600560008873ffffffffffffffffffffffffffffffffffffffff1673ffffffffffffffffffffffffffffffffffffffff16815260200190815260200160002060003373ffffffffffffffffffffffffffffffffffffffff1673ffffffffffffffffffffffffffffffffffffffff16815260200190815260200160002081905550611fe3611f588285611d8690919063ffffffff16565b600560008873ffffffffffffffffffffffffffffffffffffffff1673ffffffffffffffffffffffffffffffffffffffff16815260200190815260200160002060008a73ffffffffffffffffffffffffffffffffffffffff1673ffffffffffffffffffffffffffffffffffffffff16815260200190815260200160002054611da790919063ffffffff16565b600560008773ffffffffffffffffffffffffffffffffffffffff1673ffffffffffffffffffffffffffffffffffffffff16815260200190815260200160002060008973ffffffffffffffffffffffffffffffffffffffff1673ffffffffffffffffffffffffffffffffffffffff1681526020019081526020016000208190555061211382600560008973ffffffffffffffffffffffffffffffffffffffff1673ffffffffffffffffffffffffffffffffffffffff16815260200190815260200160002060008060009054906101000a900473ffffffffffffffffffffffffffffffffffffffff1673ffffffffffffffffffffffffffffffffffffffff1673ffffffffffffffffffffffffffffffffffffffff16815260200190815260200160002054611d8690919063ffffffff16565b600560008873ffffffffffffffffffffffffffffffffffffffff1673ffffffffffffffffffffffffffffffffffffffff16815260200190815260200160002060008060009054906101000a900473ffffffffffffffffffffffffffffffffffffffff1673ffffffffffffffffffffffffffffffffffffffff1673ffffffffffffffffffffffffffffffffffffffff1681526020019081526020016000208190555061226481600560008873ffffffffffffffffffffffffffffffffffffffff1673ffffffffffffffffffffffffffffffffffffffff16815260200190815260200160002060008060009054906101000a900473ffffffffffffffffffffffffffffffffffffffff1673ffffffffffffffffffffffffffffffffffffffff1673ffffffffffffffffffffffffffffffffffffffff16815260200190815260200160002054611d8690919063ffffffff16565b600560008773ffffffffffffffffffffffffffffffffffffffff1673ffffffffffffffffffffffffffffffffffffffff16815260200190815260200160002060008060009054906101000a900473ffffffffffffffffffffffffffffffffffffffff1673ffffffffffffffffffffffffffffffffffffffff1673ffffffffffffffffffffffffffffffffffffffff1681526020019081526020016000208190555061239484600560008973ffffffffffffffffffffffffffffffffffffffff1673ffffffffffffffffffffffffffffffffffffffff16815260200190815260200160002060008a73ffffffffffffffffffffffffffffffffffffffff1673ffffffffffffffffffffffffffffffffffffffff16815260200190815260200160002054611d8690919063ffffffff16565b600560008873ffffffffffffffffffffffffffffffffffffffff1673ffffffffffffffffffffffffffffffffffffffff16815260200190815260200160002060008973ffffffffffffffffffffffffffffffffffffffff1673ffffffffffffffffffffffffffffffffffffffff168152602001908152602001600020819055506124a383600560008873ffffffffffffffffffffffffffffffffffffffff1673ffffffffffffffffffffffffffffffffffffffff16815260200190815260200160002060003373ffffffffffffffffffffffffffffffffffffffff1673ffffffffffffffffffffffffffffffffffffffff16815260200190815260200160002054611d8690919063ffffffff16565b600560008773ffffffffffffffffffffffffffffffffffffffff1673ffffffffffffffffffffffffffffffffffffffff16815260200190815260200160002060003373ffffffffffffffffffffffffffffffffffffffff1673ffffffffffffffffffffffffffffffffffffffff168152602001908152602001600020819055507fea52f519570b32b2409f401c8da63417f5775c7e1e87e6e38c53c413a6b5e7258888338989898942604051808981526020018873ffffffffffffffffffffffffffffffffffffffff1673ffffffffffffffffffffffffffffffffffffffff1681526020018773ffffffffffffffffffffffffffffffffffffffff1673ffffffffffffffffffffffffffffffffffffffff1681526020018673ffffffffffffffffffffffffffffffffffffffff1673ffffffffffffffffffffffffffffffffffffffff1681526020018573ffffffffffffffffffffffffffffffffffffffff1673ffffffffffffffffffffffffffffffffffffffff1681526020018481526020018381526020018281526020019850505050505050505060405180910390a15050505050505050565b60008083141561265f5760009050612684565b6000828402905082848281151561267257fe5b0414151561267f57600080fd5b809150505b92915050565b6000808211151561269a57600080fd5b600082848115156126a757fe5b049050809150509291505056fea165627a7a723058208f62d33e6dc0f4b1370aa32613f6834a386f48912f8c05766195d4d8d8a189e70029",
  "source": "pragma solidity ^0.5.0;\n\nimport \"openzeppelin-solidity/contracts/math/SafeMath.sol\";\nimport \"./Token.sol\";\n\n// Deposit & Withdraw Funds\n// Handle Trades - Charge Peers\n\n// To Do List:\n\t// [] Set the fee account\n\t// [] Deposit Ether\n\t// [] Withdraw Ether\n\t// [] Deposit Tokens\n\t// [] Withdraw Tokens\n\t// [] Check Balances\n\t// [] Make Limit Order\n\t// [] Cancel Limit Order\n\t// [] Fill Limit Order\n\t// [] Charge fees\n\ncontract Exchange {\n\n\tusing SafeMath for uint256; \n\n\t// state variables\n\taddress public feeReceiver; \t\t\t\t\t// account address that receives exchange usage fees\n\tuint256 public makerFee;\t\t\t\t\t\t// sets maker fee to 1 %\n\tuint256 public takerFee;\t\t\t\t\t\t// sets taker fee to 2 %\n\taddress constant etherAddress = address(0); \t// uses the 0 address as a placeholder token for native ether\n\tuint256 public orderNonce;\t\t\t\t\t\t// counter that is zero by default and incremented for each new order on dex smart contract\n\taddress payable public charity;\t\t\t\t\t// charity address\n\n\t// events\n\tevent Deposit(address token, address maker, uint256 amount, uint256 balance);\t\t\t\t\t\t\t\t\t\t\t\t\t\t\t\t\t\t\t\t// general erc20 deposit event structure\n\tevent Withdraw(address token, address maker, uint256 amount, uint256 balance);\t\t\t\t\t\t\t\t\t\t\t\t\t\t\t\t\t\t\t\t// general erc20 withdraw event structure\n\tevent Order(uint256 id, address maker, address tokenBuy, address tokenSell, uint256 amountBuy, uint256 amountSell, uint256 timestamp);\t\t\t\t\t\t// customized order event\n\tevent Cancelled(uint256 id, address maker, address tokenBuy, address tokenSell, uint256 amountBuy, uint256 amountSell, uint256 timestamp);\t\t\t\t\t// customized cancel order event\n\tevent Trade(uint256 id, address maker, address taker, address tokenBuy, address tokenSell, uint256 amountBuy, uint256 amountSell, uint256 timestamp);\t\t// customized trade event\n\n\tmapping(address => mapping(address => uint256)) public tokens;\t\t\t// first 'address' key tracks token address, 2nd 'address' key tracks maker account that deposited token\n\tmapping (uint256 => orderObject) public orders;\t\t\t\t\t\t\t// list of all order objects currently stored on eth smart contract dex\n\tmapping(uint256 => bool) public ordersCancelled;\t\t\t\t\t\t// tracks which order ids are cancelled via this independent mapping\n\tmapping(uint256 => bool) public ordersFilled;\t\t\t\t\t\t\t// tracks which order ids have already been filled via this independent mapping\n\n\t// constructor instantiates decentralized exchange smart contract\n\tconstructor(address _feeReceiver, uint256 _makerFee, uint256 _takerFee) public {\n\t\tfeeReceiver = _feeReceiver;\n\t\tmakerFee = _makerFee;\n\t\ttakerFee = _takerFee;\n\t\tcharity = msg.sender;\n\t}\n\n\t// defines charity restrictions usable on functions\n\tmodifier onlyCharity() {\n    \trequire(msg.sender == charity);\n   \t \t_;\n  \t}\n\n\tfunction depositEther() payable public {\n\t\ttokens[etherAddress][msg.sender] = tokens[etherAddress][msg.sender].add(msg.value);\t\t// updates balance to add ether to maker's account\n\t\temit Deposit(etherAddress, msg.sender, msg.value, tokens[etherAddress][msg.sender]);\t// emits deposit event\n\t}\n\n\tfunction withdrawEther(uint _amount) payable public {\n\t\trequire(tokens[etherAddress][msg.sender] >= _amount);\t\t\t\t\t\t\t\t\t// ensures maker can't withdraw more ether than they own\n\t\ttokens[etherAddress][msg.sender] = tokens[etherAddress][msg.sender].sub(_amount);\t\t// subtracts ether balance available to withdraw for current maker\n\t\tmsg.sender.transfer(_amount);\t\t\t\t\t\t\t\t\t\t\t\t\t\t\t// transfers ether to maker\n\t\temit Withdraw(etherAddress, msg.sender, _amount, tokens[etherAddress][msg.sender]);\t\t// emits withdrawal event\n\t} \n\n\tfunction depositToken(address _token, uint256 _amount) public {\n\t\trequire (_token != etherAddress);\t\t\t\t\t\t\t\t\t\t\t// ensure token deposited is not native ether\t\t\n\t\trequire (Token(_token).transferFrom(msg.sender, address(this), _amount));\t// send tokens from the maker's wallet to this exchange contract\t\n\t\ttokens[_token][msg.sender] = tokens[_token][msg.sender].add(_amount);\t\t// manages deposit and updates balance\t\t\n\t\temit Deposit(_token, msg.sender, _amount, tokens[_token][msg.sender]);\t\t// emits deposit event\n\t}\n\n\tfunction withdrawToken(address _token, uint256 _amount) public {\n\t\trequire (_token != etherAddress);\t\t\t\t\t\t\t\t\t\t\t// ensure erc20 token is being withdrawn and not native ether\n\t\trequire(tokens[_token][msg.sender] >= _amount);\t\t\t\t\t\t\t\t// ensure maker doesn't withdraw more tokens than they own\n\t\ttokens[_token][msg.sender] = tokens[_token][msg.sender].sub(_amount);\t\t// safely subtracts balance with zerppelin safemaths\n\t\trequire(Token(_token).transfer(msg.sender, _amount));\t\t\t\t\t\t// requires the transfer of tokens to the maker\n\t\temit Withdraw(_token, msg.sender, _amount, tokens[_token][msg.sender]);\t\t// emits withdrawal event\n\t}\n\n\t// model orders with a custom struct called orderObject\n\tstruct orderObject {\n\t\tuint256 id;\n\t\taddress maker;\n\t\taddress tokenBuy;\n\t\taddress tokenSell;\n\t\tuint256 amountBuy;\n\t\tuint256 amountSell;\n\t\tuint256 timestamp;\n\t}\n\n\tfunction balanceOf(address _token, address _maker) public view returns (uint256) {\n\t\treturn tokens[_token][_maker];\n\t}\n\n\t// add orders to storage\n\tfunction makeOrder(address _tokenBuy, address _tokenSell, uint256 _amountBuy, uint256 _amountSell) public {\n\t\torderNonce = orderNonce.add(1);\t\t\t\t\t\t\t\t\t\t\t\t\t\t\t\t\t\t\t\t\t\t// increments order counter by one\n\t\torders[orderNonce] = orderObject(orderNonce, msg.sender, _tokenBuy, _tokenSell, _amountBuy, _amountSell, now);\t\t// now = current Epoch time in seconds\n\t\temit Order(orderNonce, msg.sender, _tokenBuy, _tokenSell, _amountBuy, _amountSell, now);\t\t\t\t\t\t\t// triggers order event to rest of ethereum\n\t}\n\n\t// cancel orders \n\tfunction cancelOrder(uint256 _id) public {\n\t\torderObject storage orderTemp = orders[_id];\t\t\t\t\t\t\t\t\t\t\t\t\t\t// retrieves order in question and explicitly commits to storage\n\t\trequire(orderTemp.id == _id);\t\t\t\t\t\t\t\t\t\t\t\t\t\t\t\t\t\t// ensures returned order object is not a blank struct with default values\n\t\trequire(address(orderTemp.maker) == msg.sender);\t\t\t\t\t\t\t\t\t\t\t\t\t// ensures maker can only cancel their own orders\n\t\t\n\t\tordersCancelled[_id] = true;\n\t\temit Cancelled(orderTemp.id, msg.sender, orderTemp.tokenBuy, orderTemp.tokenSell, orderTemp.amountBuy, orderTemp.amountSell, now);\n\t}\n\n\t// retrieve orders from storage and fill them\n\tfunction fillOrder(uint256 _id) public {\n\t\trequire(_id > 0 && _id <= orderNonce);\t\t\t\t\t\t\t\t\t\t\t\t\t\t\t\t\t\t\t\t\t\t\t\t\t\t\t\t// ensure valid order id greater than 0 and less than globally incremented orderNonce\n\t\trequire(!ordersCancelled[_id]);\t\t\t\t\t\t\t\t\t\t\t\t\t\t\t\t\t\t\t\t\t\t\t\t\t\t\t\t\t\t// ensures order is not one that has been cancelled\n\t\trequire(!ordersFilled[_id]);\t\t\t\t\t\t\t\t\t\t\t\t\t\t\t\t\t\t\t\t\t\t\t\t\t\t\t\t\t\t// ensures order is not on  that has already been filled\n\t\torderObject storage orderInterim = orders[_id];\t\t\t\t\t\t\t\t\t\t\t\t\t\t\t\t\t\t\t\t\t\t\t\t\t\t// matched order object retrieved\n\t\tcommitTrade(orderInterim.id, orderInterim.maker, orderInterim.tokenBuy, orderInterim.tokenSell, orderInterim.amountBuy, orderInterim.amountSell);\t// passes order to internal trade function\n\t\tordersFilled[orderInterim.id] = true;\t\t\t\t\t\t\t\t\t\t\t\t\t\t\t\t\t\t\t\t\t\t\t\t\t\t\t\t// marks order as filled\n\t}\n\n\tfunction commitTrade(uint256 _orderID, address _maker, address _tokenBuy, address _tokenSell, uint256 _amountBuy, uint256 _amountSell) internal {\n\t\tuint256 _takerFee = _amountSell.mul(takerFee).div(100);\t\t\t\t\t\t\t\t\t\t\t\t\t\t\t\t// taker fee set to just 2 %\n\t\tuint256 _makerFee = _amountBuy.mul(makerFee).div(100);\t\t\t\t\t\t\t\t\t\t\t\t\t\t\t\t// maker fee set to just 1 % \n\n\t\t// taker == msg.sender\n\t\ttokens[_tokenBuy][msg.sender] = tokens[_tokenBuy][msg.sender].sub(_amountBuy.add(_takerFee));\t\t\t\t\t\t// maker's ask is subtracted from taker along with a negligible taker fee\n\t\ttokens[_tokenSell][_maker] = tokens[_tokenSell][_maker].sub(_amountSell.add(_makerFee));\t\t\t\t\t\t\t// taker's bid is subtracted from maker along with a negligible taker fee\n\t\ttokens[_tokenBuy][feeReceiver] = tokens[_tokenBuy][feeReceiver].add(_takerFee);\t\t\t\t\t\t\t\t\t\t// dex exchange receives taker fee for maintenance costs\n\t\ttokens[_tokenSell][feeReceiver] = tokens[_tokenSell][feeReceiver].add(_makerFee);\t\t\t\t\t\t\t\t\t// dex exchange receives maker fee for maintenance costs\n\t\ttokens[_tokenBuy][_maker] = tokens[_tokenBuy][_maker].add(_amountBuy);\t\t\t\t\t\t\t\t\t\t\t\t// taker's ask is added to maker\n\t\ttokens[_tokenSell][msg.sender] = tokens[_tokenSell][msg.sender].add(_amountSell);\t\t\t\t\t\t\t\t\t// maker's bid is added to taker\n\n\t\t// emit trade event\n\t\temit Trade(_orderID, _maker, msg.sender, _tokenBuy, _tokenSell, _amountBuy, _amountSell, now);\n\t}\n\n\tfunction() payable external {}\t\t\t\t\t\t\t\t\t\t\t\t\t\t\t\t\t\t\t\t\t\t\t// directly sent ether will be donated to charity\t\t\t\t\t\t\t\t\t\t\t\t\n\n\t// chosen charity can be donated to for a noble cause\n\tfunction donate () public onlyCharity returns(bool success) {\n    \tcharity.transfer(address(this).balance);\n    \treturn true;\n\t}\n\n\t// charities can be switched using this function\n    function transferCharity(address payable newCharity) public onlyCharity {\n\t    require(newCharity != address(0));\n\t    charity = newCharity;\n  \t}\n}",
  "sourcePath": "/home/subzero/Downloads/ethdex-exchange/src/contracts/Exchange.sol",
  "compiler": {
    "name": "solc",
    "version": "0.5.0+commit.1d4f565a.Emscripten.clang"
  },
  "schemaVersion": "3.0.2",
  "updatedAt": "2019-07-30T13:22:58.332Z",
  "devdoc": {
    "methods": {}
  },
  "userdoc": {
    "methods": {}
  }
}